:1000000000000220CD050000F9050000F905000000
:10001000F9050000F9050000F9050000F9050000E8
:10002000F9050000F9050000F9050000F9050000D8
:10003000F9050000F9050000F9050000F9050000C8
:1000400061610100F9050000F9050000F9050000F3
:10005000F9050000F9050000F9050000F9050000A8
:10006000F9050000F9050000F9050000F905000098
:10007000F9050000F9050000F9050000F905000088
:10008000F9050000F9050000F9050000F905000078
:10009000F9050000F9050000F9050000F905000068
:1000A000F9050000F9050000F9050000F905000058
:1000B000F9050000F9050000D5650100F90500000B
:1000C000F9050000F9050000F9050000F905000038
:1000D000F9050000F9050000F905000010B5054C10
:1000E000237833B9044B13B10448AFF300800123E4
:1000F000237010BDD402002000000000483C020024
:1001000008B5064B1BB106480649AFF30080064808
:10011000036813B1054B03B1984708BD0000000008
:10012000483C0200D8020020D0020020000000005D
:10013000154B002B08BF134B9D46A3F5803A0021B9
:100140008B460F461348144A121A18F0CCF80F4B7E
:10015000002B00D098470E4B002B00D09847002072
:10016000002104000D000D48002802D00C48AFF318
:10017000008017F0DBFE2000290000F0F1F917F0F5
:10018000DDF900BF000008000000022000000000B0
:1001900000000000D4020020003B0020000000000E
:1001A0000000000000B585B06846432115F004FF4B
:1001B00001A8422115F000FF02A8422115F0FCFE23
:1001C00003A8432115F0F8FE6846012114F05AFBFC
:1001D00001A8002114F056FB02A8002114F052FBE4
:1001E00003A8012114F04EFB962015F0A9FF6846E4
:1001F000002114F047FB01A8012114F043FB02A8E1
:10020000012114F03FFB03A8002114F03BFB9620D2
:1002100015F096FFD8E700BF0B4B30B49D689A6885
:100220002B4662B9094A2B1FD83553F8044FAB420D
:1002300042F8044FF9D1064A034C1346A26010302D
:1002400043F8201030BC704700ED00E0FCFFFF1FBA
:100250000000002010B5174B82B01C6801A814F0F4
:10026000F7FAB4F1805F03D39DF80430032B19D063
:100270000421112014F0F6F90F4800F03FFA0F485E
:10028000012114F065F902210D4814F0EBF94FF447
:10029000004000F051FA0B485721012215F0A2FE50
:1002A00002B010BD084A136823F0500343F0100356
:1002B0001360DDE7FC81E00F006CDC02004302000C
:1002C00002001800943A0020C0800C40036870B50A
:1002D0001B690021012204469847431C06460ED0A4
:1002E000236820461B69002102229847236805469F
:1002F00031461B69204600229847284670BD70BDD4
:1003000002484021412214F059BE00BFA03A00200B
:10031000084A094B10B4026003F58071002453F8B9
:10032000042F824208BF1C608B42F8D15DF8044B59
:10033000704700BF30FC0100EC020020F0B50E4613
:1003400085B03549054618F015FF20B9334B1B68B9
:1003500063B105B0F0BD2846314918F00BFF78B9FC
:100360002E4B1B6843B1012005B0F0BD0190FFF793
:10037000C7FF019805B0F0BDFFF7C2FF0120E8E715
:100380002846284918F0F6FE10B3274B002402E057
:100390000134402C21D053F8042F002AF8D12B78B7
:1003A0003A2B32D0294602A815F0C0FA02A815F05F
:1003B00013FB90B102A815F0F5FA88B102A815F068
:1003C000FBFA03464BB1194AE01C42F82430C0E75F
:1003D000124B1B68ABB10220BBE74FF0FF30B8E710
:1003E00002A815F0CFFA05460028F6D0036802A847
:1003F0009F6815F0C5FA324601462846B8470346BD
:10040000E0E7FFF77DFF0220A3E72846084902AA9C
:1004100018F034FE029BD5E70CFC010044380020A4
:100420001CFC010014FC0100EC020020F002002082
:1004300054FC010002280ADD074AC31E52F82300BB
:10044000002142F8231020B103685B6818470020A0
:1004500070474FF0FF307047F0020020022812DC96
:100460000E4B70B51B680C4616460BB9FFF748FFDC
:10047000A51936B114F8011B094815F017FAAC425A
:10048000F8D1304670BD074B033853F8200010B147
:1004900003681B6818474FF0FF307047443800204E
:1004A000A03A0020F002002002280DDC0C4B10B511
:1004B0001B680C460BB9FFF723FF0A4815F0E4F957
:1004C00001232070184610BD074B033853F8200055
:1004D00010B103689B6818474FF0FF331846704708
:1004E00044380020A03A0020F0020020022807DD56
:1004F000064B033853F8200020B10368DB68184727
:10050000012070474FF0FF30704700BFF00200201D
:10051000022807DD064B033853F8200020B103689A
:100520001B691847002070474FF0FF30704700BF2D
:10053000F0020020022808B504D84FF400534B60A5
:10054000002008BD16F0F4FF092303604FF0FF30D0
:1005500008BD00BF08B5012016F0F0FF704700BFCE
:1005600008B5FFF777FEFFF7F9FFBDE8084001F097
:100570000DBA00BF074A13681918EFF308808142CB
:1005800002D2184611607047034B0C221A604FF0DC
:10059000FF307047E00000209C3A00200546074CE1
:1005A00008B52368986817F0E5F82368D86817F04D
:1005B000E1F805B9FEE7FFF7F5FDFBE700020020D3
:1005C000002118F063BC00BF17F012B9064880473D
:1005D0000649074A074B9A42BEBF51F8040B42F83E
:1005E000040BF8E7FFF7A4FD19070000543C0200D4
:1005F00000000020D4020020FEE700BF0048704742
:10060000006CDC02234AD36A03F47053B3F5805FB5
:100610001DD0B3F5005F17D0B3F5006F11D0D368CC
:1006200003F4E063B3F5007F32D013D9B3F5806FE4
:100630002CD0B3F5A06F27D0B3F5407F18D00020A1
:100640007047154B18687047144B186870474FF483
:100650000040704773B1B3F5807FF0D1104A114B61
:10066000D06C114AB0F1985F2CBF18461046704705
:100670000E4870470A4A0E4BD06C0E4AB0F1985F94
:100680002CBF1846104670470B4870470B48704700
:100690000B48704700800C40E8000020E400002078
:1006A000B081E00F40B56400C0CF6A00809FD500E4
:1006B000804F120040420F00003FAB01406F4001ED
:1006C000C0D8A70008B5FFF79DFF074A0749136880
:1006D0005268C3F382330133B0FBF3F002F00F0230
:1006E000D040086008BD00BF00800C40983A002050
:1006F000014B1868704700BFE8000020044A054B12
:100700001060DB6A1B0500D47047FFF7DBBF00BF3A
:10071000E800002000800C40704700BF4FF400400C
:10072000704700BF4FF47A70704700BF014B1868E4
:10073000704700BFE4000020044A054B1060DB6AEC
:100740009B0400D47047FFF7BDBF00BFE40000204A
:1007500000800C4000B583B001900091019B012BFB
:100760000CD1009A4FF6FF739A4207D1054803F067
:10077000BFFE04480449054A03F07AFE03B05DF861
:1007800004FB00BFF003002001460000DC00002055
:1007900008B501204FF6FF71FFF7DCFF08BD00BF71
:1007A00000B583B001900B468DF80330019A1378A1
:1007B0006FF307031370019A53786FF305035370B7
:1007C000019A53786FF387135370019A9DF90330A0
:1007D0001046194615F0F0FB019B184603B05DF872
:1007E00004FB00BF00B583B001900091019B184647
:1007F000009914F047F803B05DF804FB00B583B02E
:100800000190009101980099FFF7ECFF019B1846B9
:1008100003B05DF804FB00BF00B583B00190019BFD
:10082000084A1A60019B5C33184600F077FF0023EA
:10083000002B02D0019803F017FE019B184603B06D
:100840005DF804FB182D020000B583B001900198FB
:10085000FFF7E2FF019803F007FE019B184603B083
:100860005DF804FB10B584B003908DF80B108DF883
:100870000A208DF80930039B03F10C009DF90B1041
:100880009DF90A209DF909304FF0FF34009415F0CE
:10089000F1F8039B03F1B0029DF918301046194698
:1008A000FFF77EFF039B03F1B2029DF91C30104657
:1008B0001946FFF775FF039B0C33184608210022E9
:1008C00015F046F9039B0C331846094915F04EF90B
:1008D000039BB03318460121FFF790FF039BB2330F
:1008E00018460121FFF78AFF039B184604B010BD8C
:1008F00000127A0000B583B00190019B0C331846BA
:10090000FFF78AFF019B184603B05DF804FB00BFA8
:1009100000B583B0019013460A468DF803208DF888
:100920000230019BB03318460021FFF767FF019B9F
:1009300003F10C029DF8033003F07E0310461946C4
:1009400015F01EF9019B03F10C029DF802301046D0
:10095000194615F015F9019BB03318460121FFF730
:100960004DFF03B05DF804FB00B587B00390019321
:100970000B468DF80B3013468DF80A30039BB033CD
:1009800018460021FFF73AFF039B03F10C029DF884
:100990000B3003F07E031046194615F0F1F80023E2
:1009A0008DF8173010E0039B03F10C029DF817300F
:1009B00001990B441B781046194615F0E1F89DF893
:1009C000173001338DF817309DF817209DF80A3045
:1009D0009A42E8D3039BB03318460121FFF70EFF7C
:1009E00007B05DF804FB00BF00B585B001900B4671
:1009F0008DF80330019BB03318460021FFF7FEFE4F
:100A0000019B03F10C029DF8033063F07F03DBB21E
:100A10001046194615F0B4F8019B0C331846002116
:100A200015F0AEF803468DF80F30019BB033184631
:100A30000121FFF7E3FE9DF80F30184605B05DF881
:100A400004FB00BF10B586B0039001930B468DF8F0
:100A50000B3013468DF80A309DF80A30002B00D178
:100A600095E09DF80B3063F07F038DF81430002380
:100A70008DF81730039BB03318460021FFF7BEFEF8
:100A80009DF80A30013B8DF80A30039B03F10C02FC
:100A90009DF814301046194615F072F85EE09DF886
:100AA0001730002B45D19DF82030002B41D000237A
:100AB0008DF816309DF820308DF8153010E09DF837
:100AC0001530012202FA03F3DAB29DF8163013430F
:100AD000DBB28DF816309DF8153001338DF81530E6
:100AE0009DF81530072BEAD9039B03F10C029DF802
:100AF00014301046194615F043F803468DF81330AC
:100B00009DF81730019A13441B78DAB29DF816301D
:100B1000DB43DBB21340DAB29DF813109DF81630B8
:100B20000B40DBB2DBB21343DBB2DAB2019B1A70CB
:100B30000FE09DF81730019AD418039B03F10C02C3
:100B40009DF814301046194615F01AF80346DBB22A
:100B500023709DF8173001338DF817309DF817205A
:100B60009DF80A309A429AD39DF81730019AD4180A
:100B7000039B0C331846002115F002F80346DBB244
:100B80002370039BB03318460121FFF737FE06B0F0
:100B900010BD00BF00B585B0019013460A468DF820
:100BA00003208DF802309DF8033001981946FFF7B5
:100BB0001BFF03468DF80F309DF80F209DF8023083
:100BC0001343DBB29DF80320019811461A46FFF744
:100BD0009FFE05B05DF804FB00B585B0019013469B
:100BE0000A468DF803208DF802309DF803300198F5
:100BF0001946FFF7F9FE03468DF80F309DF80230D5
:100C0000DB43DAB29DF80F301340DBB2DBB29DF864
:100C10000320019811461A46FFF77AFE05B05DF8E9
:100C200004FB00BF10B586B00390029100931346F9
:100C30008DF80730039802210022FFF769FE039820
:100C40000A210422FFF764FE039814218022FFF793
:100C5000A1FF9DF80730039812211A46029BFFF767
:100C600083FE039802210322FFF752FE41F28833EC
:100C7000ADF8163003980A21FFF7B6FE03468DF84B
:100C800015309DF8153003F00403002B17D000BF7A
:100C9000039802210022FFF73BFE03984421FFF74F
:100CA000A3FE03461A46009B1A70009B5C1C039827
:100CB0004221FFF799FE03462370012310E0BDF89F
:100CC0001630013BADF81630BDF81630002B14BFBE
:100CD00000230123DBB2002B01D0042300E0C9E78D
:100CE000184606B010BD00BF00B583B00190019B4F
:100CF000B23318460021FFF781FD0A2015F020FAD3
:100D0000019BB23318460121FFF778FD322015F020
:100D100017FA019854218022FFF7FAFD0198562115
:100D2000A922FFF7F5FD019858210322FFF7F0FDF6
:100D300001985A21E822FFF7EBFD01982A21402271
:100D4000FFF7E6FD019822213D22FFF7E1FD019822
:100D50004C217022FFF7DCFD019800F003F803B08E
:100D60005DF804FB00B585B0019001982821FFF7DC
:100D70003BFE03468DF80F309DF80F3003F0030360
:100D8000032B09D09DF80F3043F00303DBB2019829
:100D900028211A46FFF7BCFD05B05DF804FB00BF33
:100DA00000B58DB009900891069313468DF81F3059
:100DB00030238DF82F309DF82F309DF81F200092A2
:100DC000069A01920E9A02920F9A03929DF8402081
:100DD00004929DF84420059209980C211A46089B1C
:100DE00000F006F8034618460DB05DF804FB00BF9E
:100DF00000B58BB0059003930B468DF81330134666
:100E00008DF8123000238DF827300F9B002B02D075
:100E10000F9B1B7800E000238DF81F309DF84030B9
:100E20001B01DAB29DF81F3013448DF81E3005986F
:100E300002210022FFF76CFD059808217F22FFF7B1
:100E400067FD059814218022FFF7A4FE9DF830303D
:100E5000059812211A46039BFFF786FD9DF81E3068
:100E600005981A211A46FFF753FD9DF8133005988F
:100E700002211A46FFF74CFD9DF813300C2B04D1CC
:100E800005981A218022FFF785FE4FF4FA63089334
:100E900005980821FFF7A8FD03468DF81D309DF841
:100EA0001D209DF812301340DBB2002B0ED000BF86
:100EB00005980C21FFF798FD03468DF81C309DF82E
:100EC0001C3003F01303002B18D015E09DF81D30E3
:100ED00003F00103002B01D0042393E0089B013BA6
:100EE0000893089B002B14BF00230123DBB2002BC7
:100EF00001D0042386E0CBE7022383E00D9B002B87
:100F000030D00E9B002B2DD005981421FFF76CFDDF
:100F100003468DF81D300E9B1B789DF81D209A42CC
:100F200001D905236EE00E9B9DF81D201A709DF8D7
:100F30001D309DF840200092059812211A460D9B05
:100F4000FFF780FD05981821FFF74EFD034603F0DB
:100F500007038DF827300F9B002B03D00F9B9DF8C4
:100F600027201A709DF81C3003F00803002B01D0D5
:100F7000032347E00D9B002B43D00E9B002B40D05A
:100F80009DF84430002B3CD00E9B1B78012B05D1E3
:100F90009DF82730042B01D1092333E00E9B1B78E9
:100FA000012B03D99DF82730002B01D0082329E01D
:100FB0000E9B1B78023BDAB206AB05980D99FFF742
:100FC00031FE03468DF81D309DF81D30012B02D0F7
:100FD0009DF81D3016E00E9B1B78023B0D9A1344C2
:100FE0001A789DF818309A4209D10E9B1B78013B64
:100FF0000D9A13441A789DF819309A4201D00823AB
:1010000000E0012318460BB05DF804FB00B585B085
:1010100003900291019203982621029A019B00F00D
:1010200005F80346184605B05DF804FB00B58BB023
:101030000790059204930B468DF81B30059B002BFF
:1010400003D0049B1B78012B01D805232DE00798C2
:101050001C218022FFF7C0FD07238DF826300DF1FB
:101060001B03049A00920DF12602019200220292C3
:1010700000220392079819460122059BFFF790FE74
:1010800003468DF827309DF82730012B02D09DF8BC
:1010900027300AE0049B1B78022B03D19DF82630F1
:1010A000002B01D0022300E0012318460BB05DF8AD
:1010B00004FB00BF00B593B00790069113468DF86E
:1010C000173001238DF844309DF81730502B01D98B
:1010D00007234EE207981C218022FFF77DFD0023A5
:1010E0008DF8473032E29DF84430022B17D0032BA5
:1010F00029D0012B31D193238DF8283000238DF88E
:1011000041309DF81730002B05D0069B1B78042B2F
:1011100001D9012300E000238DF845301FE095231D
:101120008DF8283003238DF841309DF81730002BBF
:1011300005D0069B1B78072B01D9012300E0002373
:101140008DF845300BE097238DF8283006238DF875
:10115000413000238DF8453001E0062309E29DF877
:1011600017209DF84130DB009A420CDD9DF841309C
:101170001A465201D31ADB00DAB29DF81730134435
:101180008DF8403002E000238DF8403002238DF8C6
:1011900042309DF84530002B09D09DF842305A1C52
:1011A0008DF8422012A90B44882203F8202C9DF8C8
:1011B0004030DB08DAB29DF8403003F00703002B23
:1011C00001D0012300E0002313448DF837309DF84F
:1011D0003730002B32D09DF84530002B01D003234F
:1011E00000E004238DF835309DF837209DF8353028
:1011F0009A4203D99DF835308DF8373000238DF8A9
:10120000433015E09DF842305A1C8DF842209DF87D
:1012100041109DF843200A4406990A44527812A9C5
:101220000B4403F8202C9DF8433001338DF84330F4
:101230009DF843209DF837309A42E3D39DF845301E
:10124000002B04D09DF8403008338DF84030002347
:101250008DF8463002E19DF840301F2B31D97023C4
:101260008DF829309DF82A209DF82B305340DAB2B2
:101270009DF82C305340DAB29DF82D305340DBB24C
:101280008DF82E300AAA0AAB0733079811460722B9
:10129000FFF7C8FC03468DF834309DF83430012B3D
:1012A00002D09DF8343064E100238DF82730092303
:1012B0008DF83F300AAB06330E9303238DF82630AA
:1012C00032E09DF8403003F00703DBB28DF82730A1
:1012D0009DF84030DB088DF843309DF843300233F1
:1012E0008DF842309DF842301B01DAB29DF827306C
:1012F0001344DBB28DF829309DF82730002B01D044
:10130000012300E000239DF8422013448DF83F3074
:101310009DF842300AAA13440E9309229DF84230E8
:10132000D31ADBB28DF826309DF827308DF8333094
:101330009DF833301B01DAB29DF827301344DBB23D
:1013400007981A211A46FFF7E3FA0AAA9DF83F30D8
:101350000DF1260100910DF1270101919DF8331047
:10136000029100210391079811461A460E9BFFF740
:1013700017FD03468DF834309DF83430032B5BD1D4
:1013800007981C21FFF730FB03468DF834309DF899
:10139000343003F02003002B01D00323E9E09DF853
:1013A000343003F01F038DF836309DF83630002BB3
:1013B00002D120238DF836309DF836209DF840303C
:1013C0009A4201D80623D4E09DF836308DF840309B
:1013D0009DF840305A1E694B1340002B03DA013B45
:1013E00063F0070301338DF843309DF84030DB088C
:1013F000DAB29DF84330002B01D0012300E0002336
:101400001344DBB201338DF842309DF842309DF831
:10141000422012A90A4412F8202CD1B29DF8432090
:10142000012000FA02F2D2B20A43D2B2D2B212A919
:101430000B4403F8202C11E09DF83430012B02D02E
:101440009DF8343095E09DF840301F2B03D90123DF
:101450008DF8463002E020238DF840309DF846306C
:1014600083F00103DBB2002B7FF4F5AE9DF82A3048
:10147000882B01D1032300E002238DF842309DF830
:101480002A30882B01D1032300E004238DF8373064
:1014900000238DF8433015E09DF841209DF843303E
:1014A000D1189DF842305A1C8DF8422012AA1344DC
:1014B00013F8202C069B0B445A709DF843300133DF
:1014C0008DF843309DF843209DF837309A42E3D39E
:1014D0009DF82630032B03D19DF82730002B01D037
:1014E000022346E00AAB023307980E990122FFF768
:1014F00099FB03468DF834309DF83430012B02D02F
:101500009DF8343035E09DF82A200E9B01331B787E
:101510009A4206D19DF82B200E9B02331B789A42EB
:1015200001D0082325E00E9B1B7803F00403002B59
:1015300005D09DF8443001338DF8443006E0012396
:101540008DF847300E9B1A78069BDA729DF847306B
:1015500083F00103DBB2002B7FF4C5AD9DF844306E
:101560001A4652001344DBB20133DAB2069B1A70FA
:101570000123184613B05DF804FB00BF070000808C
:1015800084B001900B468DF8033000238DF80F30A6
:101590009DF8033003F00403002B03D0FF238DF8E4
:1015A0000F3065E09DF80330182B4DD801A252F89A
:1015B00023F000BF3116000041160000491600005C
:1015C000491600004916000049160000491600009F
:1015D00049160000211600001916000049160000E7
:1015E000491600004916000049160000491600007F
:1015F000491600003916000039160000491600008F
:10160000491600004916000049160000491600005E
:10161000491600002916000003238DF80F3027E03B
:1016200004238DF80F3023E005238DF80F301FE0E1
:1016300006238DF80F301BE007238DF80F3017E0DD
:1016400008238DF80F3013E09DF8033003F02003DA
:10165000002B03D001238DF80F3008E09DF80330F4
:1016600003F04003002B02D002238DF80F3000BF9F
:101670009DF80F30184604B0704700BF82B001904B
:101680000B468DF803309DF80330FF2B04D10A235D
:10169000DBB2013B8DF803309DF80320024B53F879
:1016A0002230184602B0704754FE010000B585B0E4
:1016B000019002238DF80B3003AA0DF10B03019862
:1016C00011461A46FFF7A2FC03468DF80F309DF82D
:1016D0000F30012B03D09DF80F30032B01D10123D4
:1016E00000E00023184605B05DF804FB00B585B0A6
:1016F0000190019B019819460022FFF7DBFC03468D
:101700008DF80F309DF80F30012B14BF00230123FB
:10171000DBB2184605B05DF804FB00BF82B0019053
:10172000019B184602B0704700B583B0019000914C
:10173000019B012B0CD1009A4FF6FF739A4207D1FF
:10174000054802F0D5FE04480449054A02F090FE1F
:1017500003B05DF804FB00BFF40300200146000065
:10176000DC00002008B501204FF6FF71FFF7DCFF19
:1017700008BD00BF00B583B00190009101980099A9
:1017800018F0E0F90346184603B05DF804FB00BF0B
:1017900000B583B001900B468DF80330019A1378A1
:1017A0006FF307031370019A53786FF305035370B7
:1017B000019A53786FF387135370019A9DF90330A0
:1017C0001046194614F0E6FB019B184603B05DF87D
:1017D00004FB00BF00B583B00190019B184613F0D5
:1017E00071F80346184603B05DF804FB00B583B0FA
:1017F00001900198FFF7EEFF0346184603B05DF82D
:1018000004FB00BF00B583B00190019B084A1A6039
:10181000019B0433184601F0DDFC0023002B02D0AD
:10182000019802F021FE019B184603B05DF804FB0D
:10183000C80D020000B583B001900198FFF7E2FFE8
:10184000019802F011FE019B184603B05DF804FBFD
:1018500082B001900091009B184602B0704700BF13
:1018600000B585B00390029101920093039B184646
:101870000FF08AFC039B043318460FF085FC039B92
:10188000083318460FF080FC039B0833184606996E
:101890000FF0BEFF039B009ADA60039B1846029983
:1018A0000FF0B6FF039B0433184601990FF0B0FF09
:1018B000039B184605B05DF804FB00BF00B585B07A
:1018C0000390029101920093039B18460FF05CFC79
:1018D000039B043318460FF057FC039B083318464C
:1018E0000FF052FC039B184602990FF091FF039BE7
:1018F0000833184600990FF08BFF039B04331846FA
:1019000001990FF085FF039B0C331846069917F0D9
:101910003DFC039B184605B05DF804FB10B50DE0D7
:10192000144B1C68144814F099FA0346DAB2134BAE
:101930001A55104B1B685A1C0E4B1A60104814F0B5
:10194000EBF90346002B0CBF00230123DBB2002B75
:10195000E6D10A4818F0C6F802460A4B1B689A42BC
:1019600094BF00230123DBB2002B02D0064B0122DF
:101970001A6010BD20070020EC050020E0130020B5
:1019800000050020180700201C0700202DE9F04F5B
:10199000B7B002AF01F0DAFB07F1600318460FF0B1
:1019A000A3FB07F15C0207F160031046A2491A4647
:1019B0000FF058FF07F15C00F86307F16803184661
:1019C0000FF092FB07F1640207F1680310469B4990
:1019D0001A460FF047FF07F16403BB6307F170037A
:1019E00018460FF081FB07F16C0207F170031046F7
:1019F00093491A460FF036FF07F16C007863102008
:101A000002F03CFD06467B6B00933046F96BBA6BE7
:101A10000023FFF725FFBE6507F16C0318460FF0A2
:101A20007BFC07F1700318460FF05FFB07F16403BE
:101A300018460FF071FC07F1680318460FF055FBCC
:101A400007F15C0318460FF067FC07F160031846C6
:101A50000FF04BFB07F158037A48194601F0D8FB09
:101A600079484FF4E13114F04DF978484FF4E13101
:101A700014F048F97648FFF737F9002014F0F8FA27
:101A80000246744B9A42CCBF00230123DBB2002BE9
:101A900001D001F06FFB01F099F96F4B1B68002B2F
:101AA00004D06E480021FEF7A9FE03E06B48012137
:101AB000FEF7A4FE6A48FFF799FE0346002B0CBF11
:101AC00000230123DBB2002B03D0664B01221A60F6
:101AD00002E0644B00221A60634B1B68012B31D17A
:101AE00000F024FE614B1B68012B05D1604B1B6885
:101AF000002B01D100F01EFB54485E49002214F077
:101B000013F95D4B1A685D4B1B685D4900915D4898
:101B10005D4914F0ADF95B485C495D4A14F0A8F9E1
:101B20005C4B1B6857485C491A4614F0A1F95548AC
:101B30005A4914F09DF95A485A4917F027FB4B4B64
:101B400000221A60584814F0DBF90346184657493A
:101B500011F0FAFE0346002B04D0554B01221A6007
:101B6000012300E00023002B01D001F0EFFA3848F8
:101B7000FFF79CFD0346002B00F0CB826B463B63D6
:101B80003348FFF7B3FD324B1B781946C7F8C01036
:101B90000B4601331A464FF00003DD0045EA52754B
:101BA000D4000B4601331A464FF000034FEAC30935
:101BB00049EA52794FEAC2080B4601330733DB0882
:101BC000DB00ADEB030D02AB0033C7F8BC30204B9C
:101BD0001B78591EC7F8B8100B4601331A464FF050
:101BE00000034FEAC30B4BEA527B4FEAC20A0B4693
:101BF00001331A464FF00003D800F862F86A40EA51
:101C00005270F862D000B8620B4601330733DB082C
:101C1000DB00ADEB030D02AB0033C7F8B430D7F8EF
:101C2000BC3000221A701748224914F021F9002311
:101C300087F8CF3063E000BF7CFE010084FE010026
:101C400090FE0100C8070020FC03002000050020D2
:101C500040060020FF8DA4540C060020040600203E
:101C600008060020FC2300201C0700202C07002071
:101C7000400700201D1900003C0700203807002005
:101C800094070020E804002098FE0100E0FE010017
:101C9000E00B002034070020F8FE010018FF0100CF
:101CA0005407002074070020300600200000704117
:101CB000F023002044FF010097F8CF30894A1344F5
:101CC0005B78894889491A4614F0D2F8D7F8B420CD
:101CD00097F8CF3083490B445B78104683491A4606
:101CE00017F0A8F9D7F8BC20D7F8B4301046194639
:101CF00017F033FA97F8CF30013387F8CF30794BAC
:101D00001B7897F8CF209A42D6D3D7F8BC30184624
:101D1000774917F022FA734BDB7A72481946FFF7BE
:101D20002FFC034687F8B33097F8B3306D48194657
:101D3000FFF7A4FC03466C486E491A4614F098F865
:101D4000D7F8BC3068486C491A4614F091F86B4BD0
:101D50001B68012B23D1D7F8BC6007F17403184628
:101D60000FF0C2F907F1540207F17403104631462F
:101D70001A460FF077FD07F1740318460FF0B5F916
:101D800007F154035E4819460FF042FD5B4B0022F9
:101D90001A6007F1540318460FF0BEFAB3E1594B2D
:101DA0001B68002B40F0AF815748FFF71FFD03462B
:101DB000002B14BF00230123DBB2002B00F0A08115
:101DC00001F0AEF90123C7F8C8300023C7F8C430CA
:101DD000A9E0D7F8C4304D48194601F049FA034646
:101DE0001B68083318460FF005FA0246D7F8BC30D6
:101DF0001046194617F0BEF90346002B14BF002306
:101E00000123DBB2002B00F08980D7F8C4303F48B3
:101E1000194601F02DFA03461B68DA680132DA60D0
:101E20000023C7F8C8303048394914F021F801F0D0
:101E30005FF9D7F8C4303548194601F019FA03465E
:101E40001B6807F17802104619460FF0BFFC07F136
:101E500078037B62D7F8C4302C48194601F008FAA1
:101E600003461B68043307F17C02104619460FF045
:101E7000ADFC07F17C003862D7F8C430234819461E
:101E800001F0F6F903461B68083307F1800210469B
:101E900019460FF09BFC07F18003FB612C2002F038
:101EA000EDFA06461B4B00933046796A3A6AFB69A5
:101EB000FFF704FD3E6507F1800318460FF02CFA8A
:101EC00007F17C0318460FF027FA07F1780318464C
:101ED0000FF022FA07F150030F48194601F0DAF922
:101EE00000BF2EE040060020E804002054FF01005F
:101EF0005CFF010060FF010074FF01004807002043
:101F000000240020F023002008060020C80700203D
:101F100080FF010074070020D4070020D7F8C430E8
:101F20000133C7F8C430D7F8C4607A4801F094F997
:101F300003469E422CBF00230123DBB2002B7FF41B
:101F400048AFD7F8C830002B00F0D980D7F8BC6074
:101F500007F1840318460FF0C7F807F14C0207F1A8
:101F60008403104631461A460FF07CFC07F18403C7
:101F700018460FF0BAF807F14C0318460FF03AF97B
:101F80000346654865491A4613F072FF07F18C0352
:101F900018460FF0A9F807F1880207F18C031046E4
:101FA0005F491A460FF05EFC07F18800B86107F13F
:101FB000940318460FF098F807F1900207F1940384
:101FC000104658491A460FF04DFC07F190037B610B
:101FD00007F1980207F14C03104619460FF0F6FB83
:101FE00007F198003861102002F048FA06463B6974
:101FF00000933046B9697A690123FFF731FCBE646A
:1020000007F1980318460FF087F907F19003184677
:102010000FF082F907F1940318460FF066F807F104
:10202000880318460FF078F907F18C0318460FF073
:102030005CF807F148033748194601F0E9F801F068
:1020400057F807F1A00318460FF04EF807F19C026D
:1020500007F1A003104632491A460FF003FC07F1BE
:102060009C00F86007F1A80318460FF03DF807F14F
:10207000A40207F1A80310462A491A460FF0F2FB02
:1020800007F1A403BB6007F1AC0207F14C03104653
:1020900019460FF09BFB07F1AC0078602C2002F092
:1020A000EDF90646204B00933046F968BA687B6824
:1020B000FFF704FC7E6407F1AC0318460FF02CF91F
:1020C00007F1A40318460FF027F907F1A8031846F3
:1020D0000FF00BF807F19C0318460FF01DF907F1FC
:1020E000A00318460FF001F807F144030F48194602
:1020F00001F0D0F807F14C0318460FF00DF902E09B
:102100000B4B01221A604FF4FA7014F019F83B6B74
:102110009D46C2E4C8070020E80400208CFF0100AF
:1021200090FF0100A0FF010074070020D4070020E9
:10213000FC23002010B584B000F0DAFF7548764922
:1021400017F024F87348754917F007F87148744977
:1021500017F003F86F48734916F0FFFF6D48724996
:1021600016F0FBFF6B48714916F0F7FF694870499C
:1021700016F0F3FF67486F4916F0EFFF65486E49A8
:1021800016F0EBFF6D4B1B68002B13D06B4B00223E
:102190001A6060486A4916F0E0FF5E48694916F027
:1021A000DCFF5C48684916F0D8FF5A48674916F0CA
:1021B000D4FFEDE1664B1B68002B59D1654B1B68C2
:1021C000002B11D1644B1B68002B04D0514863498C
:1021D00016F0C3FF0CE04F48614916F0BEFF4D48B2
:1021E000604916F0BAFF03E04A485F4916F0B5FFB0
:1021F00048485E4916F0B1FF46485D4916F0ADFF0C
:1022000044485C4916F0A9FF42485B4916F0A5FF17
:1022100040485A4916F0A1FF3E48594916F09DFF23
:102220003C48584916F099FF3A48574916F095FF2F
:102230003848564916F091FF3648554916F08DFF3B
:102240003448544916F089FF3248534916F085FF47
:102250003048524916F081FF2E48514916F07DFF53
:102260002C48504916F079FF2A484F4916F075FF5F
:1022700028484E4916F071FF364B1B68002B18D1C9
:10228000334B1B68002B14D1334B1B68002B03D13D
:102290002048474916F061FF1E48464916F05DFF89
:1022A0001C48454916F059FF1A48444916F055FF95
:1022B0000BE0274B1B68002B03D11648404916F052
:1022C0004CFF14483B4916F048FF214B1B68002B7C
:1022D00011D110483B4916F040FF3B4B1B68012BC6
:1022E00004D10C48394916F038FF51E10948384902
:1022F00016F033FF4CE1164B00221A6005483549B1
:1023000016F02BFF0348344916F027FF00230393F0
:10231000BDE000BFE0130020ACFF0100BCFF0100E6
:10232000F0FF010030000200440002004001020002
:1023300048010200740700205C010200F82300201D
:1023400064010200B4010200E80102002802020058
:10235000F4230020F0230020FC2300207002020060
:10236000A4020200240302006C0302009003020096
:10237000C0030200DC0302004C04020090040200CF
:10238000AC040200E4040200080502004405020057
:10239000B4050200E805020004060200200602005F
:1023A0002406020028060200400602004C06020035
:1023B0001407020090070200980702003408020088
:1023C000B4080200200902000C06002034090200B3
:1023D0004C090200640902008C090200814882490C
:1023E00016F0BBFE039B8148194600F041FF0346EF
:1023F0001B6818460EF0FEFE03467A48194616F092
:10240000ACFE78487A4916F0A8FE039B7748194637
:1024100000F02EFF03461B68DB6801AA10467549D1
:102420001A4616F007FE01AB6E48194616F095FEE7
:102430006C486F4916F091FE039B6C48194600F0FA
:1024400017FF03461B68043318460EF0D3FE0346FD
:102450006448194616F081FE6248654916F07DFE13
:10246000039B6248194600F003FF03461B680833CC
:1024700018460EF0BFFE03465A48194616F06DFE88
:1024800058485B4916F069FE039B01330393039C94
:10249000564800F0E1FE03469C422CBF0023012376
:1024A000DBB2002B9AD14F48534916F056FE4D48E7
:1024B000524916F052FE4B48514916F04EFE002389
:1024C000029351E04748484916F047FE029B4D48A9
:1024D000194600F00FFF03461B680C3341481946AC
:1024E00016F03BFE3F48424916F037FE029B454836
:1024F000194600F0FFFE03461B6818460EF07AFEF0
:1025000003463848194616F028FE3648384916F072
:1025100024FE029B3B48194600F0ECFE03461B6874
:10252000043318460EF066FE03462E48194616F090
:1025300014FE2C482E4916F010FE029B3148194615
:1025400000F0D8FE03461B68083318460EF052FE12
:1025500003462448194616F000FE2248244916F086
:10256000FCFD029B01330293029C264800F0B6FE5C
:1025700003469C422CBF00230123DBB2002BA1D1D8
:1025800018481D4916F0E9FD16481F4916F0E5FDEB
:1025900014481E4916F0E1FD124817F0A3FA03464D
:1025A0001A461B4B1A601B4B1A68194B1B681A48BA
:1025B0001A4916F03FFD1A4BC8221A60194B072220
:1025C0001A6000F00DFD00F043FD00F017FD054816
:1025D00000214FF4805215F086FE00F025F804B07B
:1025E00010BD00BFE0130020D0090200C807002082
:1025F000DC090200E8090200EC090200F809020007
:10260000340A0200D4070020700A0200DC0A02002B
:10261000340700203C070020A8070020EC0A020035
:10262000300700202407002008B5334B01221A6030
:10263000324B4FF4FA721A60314B18221A6031484B
:1026400013F080FC2F4813F041FC10E000F000FD77
:102650002D482E49FFF78EF80346002B0CBF0023B0
:102660000123DBB2002B02D0234B00221A60224B45
:102670001B68012B0CD1234813F042FC034618467B
:10268000234911F043F90346002B01D0012300E058
:102690000023002BDAD1184B1B68012B21D11D48D8
:1026A0001D4916F073FD154B4FF4FA721A60144B66
:1026B0000A221A6000F094FC00F0CAFC174B1B6859
:1026C000144817491A4616F0B5FC0C4B4FF4FA7231
:1026D0001A600B4B0A221A6000F082FC00F0B8FC72
:1026E00006E00C480F49104A16F0A4FC00F078FCF4
:1026F000044813F027FC08BD4007002030070020E5
:102700002407002020060020E0070020000B020024
:102710000000A040A8070020080B020000010020D4
:10272000180B02002C0B0200A4070020F0B5AFB07C
:102730009F48A04913F09CFB4FF4FA7013F000FD82
:102740009D480021002213F0EFFA9C4B00221A60F2
:102750009B4B00221A609B4B00221A609A48002172
:102760004FF4006215F0BFFD91489849984A13F064
:102770007FFB9748974916F011FD03462993299B43
:10278000002B00F0E982299A914B13448E48194698
:1027900016F0FCFC8B4B00221A608F4B00938A488A
:1027A0008E498F4A8F4B16F069FC289086488E49D7
:1027B000FEF7E0FF2790279B06338C4819460F222F
:1027C00017F0AEF97A488A49884A13F051FB7E48DF
:1027D0008849FEF7CFFF0346002B0CBF00230123DF
:1027E000DBB2002B05D0844B01221A60834B0122FF
:1027F0001A6075488249FEF7BDFF0346002B0CBFE7
:1028000000230123DBB2002B03D07E4B01221A6090
:1028100070E26D487C49FEF7ADFF0346002B0CBF0C
:1028200000230123DBB2002B00F0FA80724B002260
:102830001A6065487549FEF79DFF269000232D9389
:1028400018E02D9B0733269A13441B78262B05D1BD
:102850000DAA2D9B134400221A700EE02D9B073306
:10286000269A13441A780DA92D9B0B441A702D9BA0
:1028700001332D932D9B0E2BE3DD11AB18460EF08B
:1028800033FC0CA90DAA11AB084611461A460EF0EE
:10289000E9FF11AB18460EF028FC4B485C49FEF7E7
:1028A00069FF259000232C9318E02C9B0933259A6F
:1028B00013441B78262B05D107AA2C9B1344002216
:1028C0001A700EE02C9B0933259A13441A7807A935
:1028D0002C9B0B441A702C9B01332C932C9B132B99
:1028E000E3DD12AB18460EF0FFFB06A907AA12ABF8
:1028F000084611461A460EF0B5FF12AB18460EF008
:10290000F4FB06AB18460EF075FC03462848414917
:102910001A4613F0ADFA0CAB18460EF06BFC0346EA
:1029200023483C491A4613F0A3FA3B480EF062FCD8
:1029300003461F4837491A4613F09AFA13AA06AB02
:10294000104619460EF042FF13AE14AA0CAB104607
:1029500019460EF03BFF14AD15AB18462E490EF08C
:1029600035FF15AF102001F089FD04460097204681
:1029700031462A460023FEF773FF059415AB18462F
:102980000EF0CAFC14AB18460EF0C6FC13AB18468A
:102990000EF0C2FC05AB2148194600F039FC06AB2D
:1029A00018460EF0B9FC0CAB18460EF0B5FCA1E1D0
:1029B000E8040020400B0200000500202007002052
:1029C0001C07002040070020E00B0020500B0200F5
:1029D000E0130020600B020094070020640B02004B
:1029E0003C07002038070020740B0200E023002081
:1029F0007C0B0200900B0200F82300204807002007
:102A0000980B0200F4230020A00B0200A40B02008C
:102A1000AC0B0200B80B020000240020C807002005
:102A20009D4B00221A609D489D49FEF7A3FE034678
:102A3000002B0CBF00230123DBB2002B00F04781E9
:102A40009848FEF7D3FE0346002B14BF0023012352
:102A5000DBB2002B00F038819348944913F008FA58
:102A600000F05EFB01232B9300232A9366E02A9B50
:102A70008F48194600F0FCFB03461B6804331846D8
:102A80008C4900F049FC0346002B54D02A9B88480F
:102A9000194600F0EDFB03461B68DA680132DA6084
:102AA00000232B9300F024FB2A9B8148194600F059
:102AB000DFFB03461B6816AA104619460EF086FE79
:102AC00016AF2A9B7A48194600F0D2FB03461B68D2
:102AD000083317AA104619460EF078FE17AE2A9B47
:102AE0007348194600F0C4FB03461B68043318AA58
:102AF000104619460EF06AFE18AD2C2001F0BEFCFF
:102B000004466D4B00932046394632462B46FEF76D
:102B1000D5FE049418AB18460EF0FEFB17AB184612
:102B20000EF0FAFB16AB18460EF0F6FB04AB63484A
:102B3000194600F0AFFB2A9B01332A932A9C5C487C
:102B400000F08AFB03469C422CBF00230123DBB22A
:102B5000002B8CD12B9B002B00F09D801AAB1846CC
:102B60000EF0C2FA19AA1AAB104655491A460EF0D1
:102B700079FE19AE1CAB18460EF0B6FA1BAA1CABB8
:102B800010464C491A460EF06DFE1BAD1EAB1846A2
:102B90000EF0AAFA1DAA1EAB10464A491A460EF0BC
:102BA00061FE1DAF102001F069FC0446009720462D
:102BB00031462A460123FEF753FE03941DAB184607
:102BC0000EF0AAFB1EAB18460EF08FFA1BAB184690
:102BD0000EF0A2FB1CAB18460EF087FA19AB184694
:102BE0000EF09AFB1AAB18460EF07FFA03AB304892
:102BF000194600F00DFB00F07BFA20AB18460EF0F2
:102C000073FA1FAA20AB10462D491A460EF02AFE71
:102C10001FAF22AB18460EF067FA21AA22AB10466E
:102C200024491A460EF01EFE21AE24AB18460EF0C3
:102C30005BFA23AA24AB104622491A460EF012FE74
:102C400023AD2C2001F01AFC04461B4B00932046B8
:102C5000394632462B46FEF731FE029423AB184626
:102C60000EF05AFB24AB18460EF03FFA21AB184683
:102C70000EF052FB22AB18460EF037FA1FAB184687
:102C80000EF04AFB20AB18460EF02FFA02AB0B48B1
:102C9000194600F0FFFA1AE0F4230020E00B0020B0
:102CA000BC0B020008060020E8040020C80B02004C
:102CB000C8070020E023002074070020D40700206C
:102CC00090FF0100D80B02002D4B01221A602D4805
:102CD0002D49FEF74FFD0346002B0CBF00230123B7
:102CE000DBB2002B06D02948294913F0C1F8294B43
:102CF00000221A60284B1B68284829491A4616F0FA
:102D000099F920482749FEF735FD0346002B0CBFF3
:102D100000230123DBB2002B02D0234B01221A60D7
:102D200018482249FEF726FD0346002B0CBF00235E
:102D30000123DBB2002B02D01B4B01221A601C4B7B
:102D40001B685A1C1A4B1A60194B1B681948144906
:102D50001A4616F06FF90DE0174800214FF4805223
:102D600015F0C1FA15481649002212F0DDFF154B87
:102D700001221A600548144913F07AF82FB0F0BD0B
:102D8000FC230020E00B0020E80B0200E8040020F8
:102D9000F40B02000C0600203C070020A4070020D2
:102DA000E8090200000C02002C070020040C0200BD
:102DB000440700204C070020E013002000050020FD
:102DC0001D190000400700200C0C020000B583B064
:102DD00000F08EF962486349634A13F049F860488D
:102DE000624913F045F86248624916F0CFF9624B28
:102DF0004FF4FA621A60614B4FF416721A6000F0D9
:102E0000EFF800F025F956485D4913F031F85D4BB5
:102E10001B6853485C491A4613F02AF858485B4926
:102E2000FEF7A8FC0346002B0CBF00230123DBB2F6
:102E3000002B00F087804A48554913F019F84C4898
:102E4000544916F0A3F94C4B4FF4FA721A604B4BED
:102E50000A221A6000F0C4F800F0FAF84E4B1B6822
:102E600043484E491A4616F0E5F8434B4FF4FA72C0
:102E70001A60424B0A221A6000F0B2F800F0E8F83B
:102E8000474B1B683A4847491A4616F0D3F83A4B65
:102E90004FF4FA721A60394B32221A6000F0A0F82F
:102EA00000F0D6F82E48404912F0E2FF30483F4982
:102EB00016F06CF9304B4FF47A721A602F4B3222B5
:102EC0001A6012E000F08CF800F0C2F82C48384983
:102ED000FEF750FC0346002B14BF00230123DBB296
:102EE000002B02D0334B01221A60324B1B68002B9F
:102EF000E8D01B48304912F0BBFF214816F0F2FD24
:102F00000346083B1E4A0021D1542C4B0193224B0F
:102F10001B682B482B49019A16F08CF81048284959
:102F200012F0A6FF284BC8221A60164B00221A6026
:102F30000B48264912F09CFF25482649002212F032
:102F4000F3FE04E00648244912F092FFFEE723480E
:102F500012F0F8FF214812F0B9FF03B05DF804FB4E
:102F6000E8040020200C020074070020340C02004A
:102F7000A80700205C0C0200300700202407002076
:102F8000E007002020070020E8090200680C02008A
:102F90006C0C0200080B020000010020180B02005C
:102FA00004010020980C0200A80C0200C00C0200D2
:102FB000CC0C020040070020D40C0200E5070020E2
:102FC000E00B0020FC0C0200180700200C0D020092
:102FD000000500201D190000300D02002006002011
:102FE00008B503480349044A12F042FF08BD00BF78
:102FF000EC0500208CFF0100A807002000B583B07D
:10300000002301930F4812F08BFE0346002B0CBFE8
:1030100000230123DBB2002B11D00AE00A4A019BF6
:1030200013441B780948194612F00CFF019B013329
:103030000193054A019B13441B78002BEED103B08A
:103040005DF804FB00050020E0130020EC050020E3
:1030500010B5204800214FF4806215F044F91E4855
:1030600012F070FF1C4812F031FF1C4B00221A6056
:1030700018E01B4812F050FE0346002B0CBF002343
:103080000123DBB2002B0DD0144B1C68154812F045
:10309000E5FE0346DAB20F4B1A55104B1B685A1C5B
:1030A0000E4B1A600C4812F03BFF02460E4B1B6899
:1030B0009A4207DA094B1A680C4B1B689A4201DAEC
:1030C000012300E00023002BD3D1034812F00AFFB4
:1030D00010BD00BFE00700201006002028070020D8
:1030E00000050020EC050020300700202407002008
:1030F00000B583B0002012F0BBFF0346019301AB83
:10310000184614F0B9FF034603483221034A16F06B
:10311000B7F803B05DF804FB74070020700D0200DF
:1031200008B5FFF7E5FF064B01221A60054B0122A7
:103130001A60054812F006FF034812F0C7FE08BDEA
:103140000C060020F02300203006002008B5FFF711
:10315000CFFF054B00221A60044B00221A6004487E
:1031600012F0C0FE08BD00BF0C060020F0230020B6
:103170003006002008B5114B00221A60104B1A6867
:103180000E4B5A600F4B1A680C4B9A600E4B1A6824
:103190000A4BDA600D4B1B685A1E084B1A610C4B28
:1031A0001B6803F16402054B5A61044815F06AF983
:1031B0000346184612F07CFF08BD00BFF40600204D
:1031C000EC000020F0000020F4000020F8000020B7
:1031D000FC00002082B00190019B184602B07047AD
:1031E00000B583B00190019B184600F0B3F8019B35
:1031F000184603B05DF804FB00B583B00190019B55
:10320000184600F0D9F8019B184603B05DF804FB9E
:1032100000B583B001900091019B5A68019B9B68A7
:103220009A420DD0019A019B5B6810461946009A9C
:1032300000F0E8F8019B5B681A1D019B5A6008E0EA
:10324000019800F0A3F9034601981946009A00F08E
:10325000E7F803B05DF804FB82B00190019B5B6866
:103260001A46019B1B68D31A9B10184602B0704780
:1032700000B583B0019000910198009900F096F993
:103280000198009900F0AAF90346184603B05DF8CA
:1032900004FB00BF00B583B001900091019B5A6808
:1032A000019B9B689A420DD0019A019B5B68104676
:1032B0001946009A00F09EF9019B5B681A1D019B5C
:1032C0005A6008E0019800F059FA0346019819463F
:1032D000009A00F09DF903B05DF804FB82B0019004
:1032E000019B5B681A46019B1B68D31A9B1018460A
:1032F00002B0704700B583B0019000910198009929
:1033000000F04CFA0198009900F060FA0346184664
:1033100003B05DF804FB00BF00B583B001900091DD
:10332000019800990DF078FF0346002B14BF00238D
:103330000123DBB2184603B05DF804FB00B583B08F
:103340000190019800F062FA019B184603B05DF805
:1033500004FB00BF00B583B00190019B184600F04C
:1033600041FA019B184603B05DF804FB00B583B039
:103370000190019B1A68019B9B681946019B1B6881
:10338000CB1A9B10019811461A4600F04BFA019B8C
:103390001846FFF7D3FF019B184603B05DF804FB06
:1033A00000B583B00190019800F062FA019B1846C5
:1033B00003B05DF804FB00BF00B583B00190019B32
:1033C000184600F041FA019B184603B05DF804FB73
:1033D00000B583B00190019B1A68019B9B68194658
:1033E000019B1B68CB1A9B10019811461A4600F0EE
:1033F0004BFA019B1846FFF7D3FF019B184603B019
:103400005DF804FB00B585B003900291019203982A
:103410000299019A00F04AFA05B05DF804FB00BF7A
:1034200030B58BB0039002910192039B5A68039BC5
:103430009B689A422CD00399039B5A68039B5B6854
:10344000043B084611461A46FFF7DCFF039B5B6806
:103450001A1D039B5A60019B1B68099302AB184617
:1034600000F038FA03461968039B5B68A3F1080271
:10347000039B5B68043B084611461A4600F030FA8D
:1034800002AB184600F042FA0346099A1A6078E047
:10349000039801213C4A00F041FA0890039800F09B
:1034A00081FA0346049302AA04AB1046194600F0C1
:1034B00087FA03460793039B1846089900F094FA8D
:1034C0000690069B0593039A079B9B0006990B4465
:1034D00010461946019AFFF795FF00230593039BB9
:1034E0001D6802AB184600F0F5F903461C68039B03
:1034F000184600F08DFA034628462146069A00F049
:103500008DFA0590059B0433059302AB184600F035
:10351000E1F903461D68039B5C68039B184600F0B5
:1035200077FA034628462146059A00F077FA059077
:10353000039B1D68039B5C68039B184600F068FAB8
:103540000346284621461A4600F07AFA0399039B5F
:103550001A68039B9B681846039B1B68C31A9B1041
:10356000084611461A4600F05DF9039B069A1A6058
:10357000039B059A5A60089B9B00069A1A44039B7A
:103580009A600BB030BD00BF880D020000B585B059
:103590000190019B043303AA1046194600F05CFA1F
:1035A000039B184605B05DF804FB00BF00B583B06F
:1035B000019000910198FFF74FFE0246009B9A424E
:1035C0008CBF00230123DBB2002B02D002480EF097
:1035D00076F903B05DF804FBA00D020082B0019003
:1035E0000091019B1A68009B9B001344184602B08F
:1035F000704700BF00B585B0039002910192039817
:103600000299019A00F034FA05B05DF804FB00BF9E
:1036100030B58BB0039002910192039B5A68039BD3
:103620009B689A422CD00399039B5A68039B5B6862
:10363000043B084611461A46FFF7DCFF039B5B6814
:103640001A1D039B5A60019B1B68099302AB184625
:1036500000F022FA03461968039B5B68A3F1080295
:10366000039B5B68043B084611461A4600F01AFAB1
:1036700002AB184600F02CFA0346099A1A6078E06B
:10368000039801213C4A00F02BFA0890039800F0BF
:103690006BFA0346049302AA04AB1046194600F0E5
:1036A00071FA03460793039B1846089900F07EFAC7
:1036B0000690069B0593039A079B9B0006990B4473
:1036C00010461946019AFFF795FF00230593039BC7
:1036D0001D6802AB184600F0DFF903461C68039B27
:1036E000184600F077FA034628462146069A00F06D
:1036F00077FA0590059B0433059302AB184600F05A
:10370000CBF903461D68039B5C68039B184600F0D9
:1037100061FA034628462146059A00F061FA0590B1
:10372000039B1D68039B5C68039B184600F052FADC
:103730000346284621461A4600F064FA0399039B83
:103740001A68039B9B681846039B1B68C31A9B104F
:10375000084611461A4600F097F8039B069A1A602D
:10376000039B059A5A60089B9B00069A1A44039B88
:103770009A600BB030BD00BF880D020000B585B067
:103780000190019B043303AA1046194600F046FA43
:10379000039B184605B05DF804FB00BF00B583B07D
:1037A000019000910198FFF799FD0246009B9A4213
:1037B0008CBF00230123DBB2002B02D002480EF0A5
:1037C0007EF803B05DF804FBA00D020082B001900A
:1037D0000091019B1A68009B9B001344184602B09D
:1037E000704700BF00B583B00190019800F022FA45
:1037F000019B00221A60019B00225A60019B00225B
:103800009A60019B184603B05DF804FB00B583B0D5
:103810000190019800F01AFA019B184603B05DF878
:1038200004FB00BF00B585B0039002910192029B9A
:10383000002B05D0039B18460299019A00F00CFA60
:1038400005B05DF804FB00BF00B583B0019001989E
:1038500000F00EFA019B00221A60019B00225A60C0
:10386000019B00229A60019B184603B05DF804FB9F
:1038700000B583B00190019800F006FA019B18464C
:1038800003B05DF804FB00BF00B585B00390029162
:103890000192029B002B05D0039B18460299019AC6
:1038A00000F0F8F905B05DF804FB00BF00B585B085
:1038B000039002910192029B04201946FDF7C8FF74
:1038C0000346002B02D0019A12681A6005B05DF819
:1038D00004FB00BF82B00190019B184602B0704704
:1038E00010B584B0039002910192039800F0DEF9C4
:1038F0000446029800F0DAF9034620461946019A78
:1039000000F0E0F90346184604B010BD82B0019003
:10391000019B1B68184602B0704700BF10B586B007
:10392000039002910192039800F0E6F9044603988F
:10393000FFF792FC0346E21A029B9A422CBF002337
:103940000123DBB2002B02D001980DF0B5FF0398E4
:10395000FFF782FC04460398FFF77EFC03460493BE
:1039600004AA02AB1046194600F0D6F903461B68BC
:10397000234405930398FFF76FFC0246059B9A4288
:1039800006D8039800F0B8F90246059B9A4204D283
:10399000039800F0B1F9034600E0059B184606B015
:1039A00010BD00BF00B585B00190019B03AA104671
:1039B000194600F051F8039B184605B05DF804FB6A
:1039C00010B582B0019000910198FFF783FF034684
:1039D0001B681C460098FFF77DFF03461B68E31A2F
:1039E0009B10184602B010BD00B583B00190009145
:1039F000009B002B07D0019B18460099002200F085
:103A00009BF9034600E00023184603B05DF804FB71
:103A100082B00190019B184602B0704700B585B096
:103A2000039002910192009303980299019A009BDE
:103A300000F0A0F90346184605B05DF804FB00BF8E
:103A400000B585B00390029101920398029900F0AD
:103A5000A1F905B05DF804FB82B001900091009BD4
:103A60001A68019B1A60019B184602B0704700BF9C
:103A700000B585B0039002910192029B0420194683
:103A8000FDF7E6FE0346002B02D0019A12681A6089
:103A900005B05DF804FB00BF82B00190019B1846A1
:103AA00002B0704710B584B0039002910192039860
:103AB00000F07CF90446029800F078F903462046AD
:103AC0001946019A00F07EF90346184604B010BD6D
:103AD00082B00190019B1B68184602B0704700BF7E
:103AE00010B586B0039002910192039800F084F91A
:103AF00004460398FFF7F2FB0346E21A029B9A4240
:103B00002CBF00230123DBB2002B02D001980DF063
:103B1000D3FE0398FFF7E2FB04460398FFF7DEFBB2
:103B20000346049304AA02AB1046194600F0F4F8C9
:103B300003461B68234405930398FFF7CFFB024617
:103B4000059B9A4206D8039800F056F90246059B59
:103B50009A4204D2039800F04FF9034600E0059B17
:103B6000184606B010BD00BF00B585B00190019B9E
:103B700003AA1046194600F051F8039B184605B0F9
:103B80005DF804FB10B582B0019000910198FFF739
:103B900083FF03461B681C460098FFF77DFF034622
:103BA0001B68E31A9B10184602B010BD00B583B025
:103BB00001900091009B002B07D0019B18460099B3
:103BC000002200F029F9034600E00023184603B064
:103BD0005DF804FB82B00190019B184602B070476B
:103BE00000B585B003900291019200930398029969
:103BF000019A009B00F02EF90346184605B05DF8C7
:103C000004FB00BF00B585B00390029101920398B8
:103C1000029900F02FF905B05DF804FB82B0019025
:103C20000091009B1A68019B1A60019B184602B024
:103C3000704700BF00B583B00190019800F026F9ED
:103C4000019B184603B05DF804FB00BF82B00190F1
:103C5000019B184602B0704700B585B003900291F1
:103C60000192029800F000FC05B05DF804FB00BF73
:103C700000B583B00190019800F00EF9019B184641
:103C800003B05DF804FB00BF82B00190019B1846B1
:103C900002B0704700B585B003900291019202987E
:103CA00000F0E2FB05B05DF804FB00BF00B583B097
:103CB0000190019800F0F6F80346184603B05DF84D
:103CC00004FB00BF30B585B00390029101920398C8
:103CD00000F0EEF80546029800F0EAF80446019874
:103CE00000F0E6F80346284621461A4600F0ECF8B4
:103CF0000346184605B030BD00B583B00190019B66
:103D0000184600F0FFF80346184600F0EFF80346A7
:103D1000184603B05DF804FB82B001900091019B4E
:103D20001A68009B1B689A4201D2009B00E0019B2D
:103D3000184602B0704700BF00B585B003900291ED
:103D40000192039800F0E4F80246029B9A422CBFCD
:103D500000230123DBB2002B01D00DF0A4FD029B58
:103D60009B00184600F08AFB0346184605B05DF834
:103D700004FB00BF00B585B003900291019200934F
:103D800003980299019A00F0CBF80346184605B053
:103D90005DF804FB00B583B0019000910198009993
:103DA00000F0CEF803B05DF804FB00BF00B583B0AF
:103DB0000190019800F0CAF80346184603B05DF878
:103DC00004FB00BF30B585B00390029101920398C7
:103DD00000F0C2F80546029800F0BEF804460198CB
:103DE00000F0BAF80346284621461A4600F0C0F80B
:103DF0000346184605B030BD00B583B00190019B65
:103E0000184600F0D3F80346184600F0C3F80346FE
:103E1000184603B05DF804FB00B585B0039002912D
:103E20000192039800F0C8F80246029B9A422CBF08
:103E300000230123DBB2002B01D00DF034FD029BE7
:103E40009B00184600F01AFB0346184605B05DF8C3
:103E500004FB00BF00B585B003900291019200936E
:103E600003980299019A00F0AFF80346184605B08E
:103E70005DF804FB00B583B00190009101980099B2
:103E800000F0B2F803B05DF804FB00BF82B001900F
:103E9000019B184602B0704782B00190019B184602
:103EA00002B0704782B00190019B184602B0704783
:103EB00000B583B001900198FFF7F4FF0346184660
:103EC00003B05DF804FB00BF00B587B0039002911A
:103ED000019201238DF8173003980299019A00F09E
:103EE00089F80346184607B05DF804FB00B583B0B7
:103EF0000190019800F00CF80346184603B05DF8F5
:103F000004FB00BF82B00190019B184602B07047CD
:103F100082B001906FF04043184602B0704700BF76
:103F200000B585B003900291019203980299019A1D
:103F300000F082F80346184605B05DF804FB00BFA8
:103F400082B00190009102B0704700BF82B0019032
:103F5000019B184602B0704700B583B001900198EC
:103F6000FFF7F4FF0346184603B05DF804FB00BFFB
:103F700000B587B003900291019201238DF81730AC
:103F800003980299019A00F067F80346184607B0B3
:103F90005DF804FB00B583B00190019800F00CF8C7
:103FA0000346184603B05DF804FB00BF82B00190E1
:103FB000019B184602B0704782B001906FF04043F9
:103FC000184602B0704700BF00B585B0039002915B
:103FD000019203980299019A00F060F8034618468E
:103FE00005B05DF804FB00BF82B00190009102B003
:103FF000704700BF00B587B0039002910192029A0A
:10400000039BD31A9B100593059B002B0BD0059B9C
:104010009B005B42019A1A44059B9B001046039942
:104020001A4614F045F9059B9B005B42019A134424
:10403000184607B05DF804FB00B585B00390029107
:10404000019203980299019A00F038F80346184645
:1040500005B05DF804FB00BF00B587B00390029186
:104060000192029A039BD31A9B100593059B002B88
:104070000BD0059B9B005B42019A1A44059B9B0059
:10408000104603991A4614F013F9059B9B005B42F6
:10409000019A1344184607B05DF804FB00B585B0DB
:1040A00003900291019203980299019A00F01CF882
:1040B0000346184605B05DF804FB00BF10B584B098
:1040C0000390029101920398FFF7F0FD04460298D5
:1040D000FFF7ECFD034620461946019A00F01AF856
:1040E0000346184604B010BD10B584B00390029189
:1040F00001920398FFF75AFE04460298FFF756FE16
:10410000034620461946019A00F01EF80346184659
:1041100004B010BD30B585B00390029101920398B0
:10412000FFF7C6FE05460298FFF7C2FE0446019857
:10413000FFF7BEFE0346284621461A4600F01EF849
:104140000346184605B030BD30B585B003900291E6
:1041500001920398FFF700FF05460298FFF7FCFE67
:1041600004460198FFF7F8FE0346284621461A4602
:1041700000F016F80346184605B030BD00B587B00C
:1041800003900291019201238DF817300398029950
:10419000019A00F017F80346184607B05DF804FBD3
:1041A00000B587B003900291019201238DF817307A
:1041B00003980299019A00F021F80346184607B0C7
:1041C0005DF804FB00B587B0039002910192029A5A
:1041D000039BD31A9B100593059B002B06D0059BD0
:1041E0009B00019803991A4614F062F8059B9B0006
:1041F000019A1344184607B05DF804FB00B587B078
:10420000039002910192029A039BD31A9B1005938B
:10421000059B002B06D0059B9B00019803991A462D
:1042200014F046F8059B9B00019A1344184607B00A
:104230005DF804FB00B583B00190019B0E4A1A6043
:10424000019B0E4AC3F8EC20019B0D4AC3F8F020F5
:10425000019BEC33184611F0E3FD019B1846FDF776
:10426000D1FA0023002B02D0019800F0FDF8019B49
:10427000184603B05DF804FBB82C0200D02C0200F5
:10428000042D0200A0F1F000FFF7D4BFA0F1EC0074
:10429000FFF7D0BF00B583B001900198FFF7CAFFC8
:1042A000019800F0E1F8019B184603B05DF804FBAB
:1042B000A0F1F000EEE700BFA0F1EC00EAE700BFDC
:1042C00000B587B003900291039B012B65D1029A40
:1042D0004FF6FF739A4260D1314800F009F9304837
:1042E0003049314A00F0C4F83048402141220023CF
:1042F00011F084FB2D482E492B4A00F0B9F82D48C7
:1043000034213522002311F079FB2A482849264A16
:1043100000F0AEF828483721FCF742FA274843213D
:10432000FDF736FA264811F0C1FD264811F0BEFD12
:10433000254811F0BBFD332300934223019323480A
:10434000302131223223FCF78DFA20482049164AC9
:1043500000F08EF81F48FEF743FF1E481E49124A20
:1043600000F086F81D48FEF747FF1C481C490E4A1E
:1043700000F07EF805AB18460CF0B6FE05AB194808
:1043800019491A460DF06EFA05AB18460CF0ADFE51
:1043900014481649044A00F06BF807B05DF804FBB6
:1043A000F803002001460000DC000020FC03002090
:1043B0003542000000050020040600200806002009
:1043C00010060020200600203006002040060020B5
:1043D000F5080000C8070020F1430000D4070020C2
:1043E0002544000000240020B80D0200191301002C
:1043F00030B583B00190019B1D68019B5C68019BF7
:104400001846FFF705FB0346284621461A46FFF7E4
:1044100017FB019B1846FEF7A9FF019B184603B046
:1044200030BD00BF30B583B00190019B1D68019B7A
:104430005C68019B1846FFF7CDFB034628462146E2
:104440001A46FFF7DFFB019B1846FEF7C1FF019BF1
:10445000184603B030BD00BF08B501204FF6FF710C
:10446000FFF72EFF08BD00BF08B113F0A7BE7047CD
:1044700003460846194613F04BB8000010B5002853
:1044800014BF04460124204613F090FE30B9044BBB
:104490001B680BB912F0E8FF9847F4E710BD00BFA6
:1044A0002438002010B5034B0446036000F09AFA4C
:1044B000204610BDD80D020010B5034B0446036022
:1044C00000F09CFA204610BD180E020010B50446FC
:1044D000FFF7E8FF2046FFF7C7FF204610BD10B5E5
:1044E0000446FFF7E9FF2046FFF7BEFF204610BD58
:1044F0002DE9F843314D81462B685A1C2A60002B68
:1045000058D12F4C2F4B01221A7023682E489968DE
:1045100000F0C4F923682D48596800F0BFF92368FA
:104520002B4FD968DFF8D4802A482B4E00F0B6F91B
:10453000384625490CF0A4FC244940460CF0A8FD5F
:10454000304624490CF09CFC224924480CF098FC8D
:104550003369776743F4005333612368C8F8787090
:1045600099681F4800F0AAF923681E48596800F0AE
:10457000A5F923681C4ED9681C4F1D4800F09EF910
:104580001C4C174930460CF0A5FC164938460CF077
:1045900095FD174920460CF09DFC174814490CF076
:1045A00099FC2369BE6743F4005323612B68666757
:1045B00001332B604846BDE8F88300BF283800204F
:1045C00000020020840100207C37002010360020EB
:1045D000F4340020CC34002064320020C83600209F
:1045E000A43400203C320020F03200208033002030
:1045F0005437002038360020143400208035002045
:104600000D4A10B513680446591E022B116011D1D2
:104610000A480CF049FC0A480CF046FC09480CF02A
:1046200043FC09480CF06AFC08480CF067FC084899
:104630000CF064FC204610BD28380020F434002023
:1046400064320020C8360020F032002038360020C6
:104650001434002082B037B506AD85E80C00002286
:1046600000920A9A0B6801921D69DDE9062304464F
:10467000A847204603B0BDE8304002B0704782B082
:1046800037B506AD85E80C00002200920A9A0B6847
:1046900001921D69DDE906230446A847204603B0C0
:1046A000BDE8304002B0704738B50446236A0D4675
:1046B0000846012113F066FA0028C6BF2D1815F828
:1046C000013C4FF0FF33636238BD03461B6A084666
:1046D000012113F0E9BBF8B505460E461746002444
:1046E000BC4204D0286A13F01FFC431C06D14CB115
:1046F00004F18043013B56F8233005E046F82400DE
:104700000134EDE74FF0FF336B622046F8BD10B582
:104710000446006A13F008FC606210BDF8B5054657
:104720000E4617460024BC4208D056F82400296AD9
:1047300014F0DEFA013001D00134F4E72046F8BD70
:1047400010B50446006A13F0BFFB606210BD10B5DF
:104750000446006A13F0B8FB216ABDE8104016F069
:10476000DFBC4A1C10B5044603D1406A431C01D18A
:1047700003E00846216A16F0D3FC4FF0FF33636272
:1047800010BD006A12F0F6BF006A12F0F3BF2DE907
:10479000F8431446089A00234FF0FF364FF0FF37D6
:1047A00080468946C0E900678360C3601AB1012A68
:1047B00014BF02220122D9F82000214613F0F4F997
:1047C00030B9D9F8200013F08BFAC117C8E90001FD
:1047D0004046BDE8F8832DE9F8431446089A0023C3
:1047E0004FF0FF364FF0FF3780468946C0E900673B
:1047F0008360C3601AB1012A14BF02220122D9F8D2
:104800002000214613F0D0F930B9D9F8200013F078
:1048100067FAC117C8E900014046BDE8F88310B542
:104820000446006A13F080FB216ABDE8104016F0D0
:10483000A9BC4A1C10B5044603D1406A431C04D0ED
:1048400000E00846216A16F09DFC4FF0FF336362DA
:1048500010BD4A1C08B5034607D1006A12F08AFF52
:10486000003018BF0120404208BD0846196ABDE863
:10487000084014F033BA4A1C08B5034607D1006A51
:1048800012F078FF003018BF0120404208BD0846F2
:10489000196ABDE8084014F02BBA000038B5044688
:1048A0000D4600F07BF9044B256223604FF0FF3387
:1048B0006362204638BD00BFD80D020038B50446FB
:1048C0000D4600F0A1F9044B256223604FF0FF3341
:1048D0006362204638BD00BF180E02007047704763
:1048E0004FF0FF324FF0FF33C0E900230023836015
:1048F000C360704782B08DE80C004FF0FF334FF07B
:10490000FF32C0E9002300238360C36002B0704718
:1049100000207047002070474FF0FF307047036859
:1049200010B55B6A04469847431C03D0A36813F88C
:10493000010BA36010BD4FF0FF3070474FF0FF3008
:104940007047704770474FF0FF324FF0FF33C0E9B8
:10495000002300238360C360704782B08DE80C00A1
:104960004FF0FF334FF0FF32C0E900230023836094
:10497000C36002B0704700207047002070474FF0BE
:10498000FF3070474FF0FF3070474FF0FF307047F7
:104990002DE9F04105460E469046002444451DDAB7
:1049A0006869AF693F1A0FD0C4EB0803BB42B8BFB8
:1049B0001F4631463A4613F072FC6B693C443E4454
:1049C00044451F446F61E9DA2B6828465B6B3178F8
:1049D0009847013002D001340136DFE72046BDE8B8
:1049E000F081000010B5044A044640F81C2B05F085
:1049F000B9FD204610BD00BFE00E020010B5044A0C
:104A0000044640F81C2B05F0ADFD204610BD00BF4C
:104A1000200F020010B50446FFF7E4FF2046FFF721
:104A200023FD204610BD10B50446FFF7E7FF2046E2
:104A3000FFF71AFD204610BD2DE9F04105460E4650
:104A400017460024BC4221DA6869AB69C0EB030851
:104A50005FEAA80810D03B1B4345B8BF98463146D3
:104A6000424617F0DAFE6B6944444FEA8808434433
:104A7000BC4246446B61E5DA2B6828465B6B3168C3
:104A80009847013002D001340436DBE72046BDE808
:104A9000F081036810B55B6A04469847431C03D055
:104AA000A36853F8040BA36010BD2DE9F04105463F
:104AB0000E469046002444451DDAA968EF687F1A27
:104AC0000FD0C4EB0803BB42B8BF1F4630463A467E
:104AD00013F0E5FBAB683C443E4444451F44AF60E3
:104AE000E9DA2B6828469B6A9847431C03D030704C
:104AF00001340136DFE72046BDE8F0812DE9F041C1
:104B000005460E4617460024BC4221DAA968EB6828
:104B1000C1EB03085FEAA80810D03B1B4345B8BFB0
:104B200098463046424617F078FEAB6844444FEA58
:104B300088084344BC424644AB60E5DA2B6828460B
:104B40009B6A9847431C03D0306001340436DBE78E
:104B50002046BDE8F08108B503689B69984708BD09
:104B60008268C16808B58A42034603D212F8010B75
:104B70009A6008BD03689B6A984708BD8268C1684F
:104B800008B58A4201D2107808BD03685B6A98476D
:104B900008BD08B503681B6B984708BD10B5074BE7
:104BA00004460360002343608360C3600361436184
:104BB00083611C3006F0B4FA204610BDE00E0200FE
:104BC00008B503689B69984708BD8268C16808B545
:104BD0008A42034603D252F8040B9A6008BD036868
:104BE0009B6A984708BD8268C16808B58A4201D2AD
:104BF000106808BD03685B6A984708BD08B503687C
:104C00001B6B984708BD000010B5074B04460360B6
:104C1000002343608360C3600361436183611C3090
:104C200006F07EFA204610BD200F02008368587CF3
:104C300070478368987C70478368D86A7047836838
:104C400000201B6B82B0DAB262F30700C3F30722C5
:104C500062F30F20C3F3074262F317401B0E63F3A6
:104C60001F6002B07047836800205B6B82B0DAB2CD
:104C700062F30700C3F3072262F30F20C3F3074276
:104C800062F317401B0E63F31F6002B07047836826
:104C9000587C70478368987C70478368D86A7047EF
:104CA000836800201B6B82B0DAB262F30700C3F3A3
:104CB000072262F30F20C3F3074262F317401B0E73
:104CC00063F31F6002B07047836800205B6B82B0A3
:104CD000DAB262F30700C3F3072262F30F20C3F3D3
:104CE000074262F317401B0E63F31F6002B0704768
:104CF000836893F824007047836893F82500704711
:104D0000002070470020704770470020914204D275
:104D100011F8013B03EB7060F8E7704713B58B683F
:104D200001AA996804460CF09DFD204602B010BD12
:104D300013B58B6801AA596904460CF093FD20460F
:104D400002B010BD13B58B6801AAD96904460CF0F6
:104D500089FD204602B010BD13B58B6801AA596ABF
:104D600004460CF07FFD204602B010BD13B58B68E1
:104D700001AA996804460CF075FD204602B010BDEA
:104D800013B58B6801AA596904460CF06BFD2046E7
:104D900002B010BD13B58B6801AAD96904460CF0A6
:104DA00061FD204602B010BD13B58B6801AA596A97
:104DB00004460CF057FD204602B010BD13B58B68B9
:104DC00001AA996804460CF04DFD204602B010BDC2
:104DD00013B58B6801AA596904460CF043FD2046BF
:104DE00002B010BD13B58B6801AAD96904460CF056
:104DF00039FD204602B010BD0D4B10B5036090F890
:104E0000433004467BB1806808B10DF08DFC6069C9
:104E100008B10DF089FCE06908B10DF085FC606A0D
:104E200008B10DF081FC204605F018FB204610BDAE
:104E3000501202000D4B10B5036090F84330044649
:104E40007BB1806808B10DF06FFC606908B10DF0AE
:104E50006BFCE06908B10DF067FC606A08B10DF009
:104E600063FC204605F0FAFA204610BD60120200ED
:104E700010B5034B0446036005F0F0FA204610BD60
:104E8000E011020010B5034B0446036005F0E6FA9A
:104E9000204610BDF81102000B4B10B5036090F8CE
:104EA000643004465BB1806808B10DF03DFC606978
:104EB00008B10DF039FCE06908B10DF035FC204671
:104EC00005F0CCFA204610BD7012020010B5034B5D
:104ED0000446036005F0C2FA204610BD901002009F
:104EE00010B5034B0446036005F0B8FA204610BD28
:104EF000D010020010B5034B0446036005F0AEFA73
:104F0000204610BD0011020010B5034B044603609B
:104F100005F0A4FA204610BD1012020010B5034B94
:104F20000446036005F09AFA204610BD28120200DC
:104F300010B5034B0446036005F090FA204610BDFF
:104F4000B011020010B50446FFF756FF2046FFF7E8
:104F50008BFA204610BD10B50446FFF76BFF2046C4
:104F6000FFF782FA204610BD10B50446FFF780FF18
:104F70002046FFF779FA204610BD10B50446FFF72A
:104F800081FF2046FFF770FA204610BD10B5044699
:104F9000FFF782FF2046FFF767FA204610BD10B5E5
:104FA0000446FFF793FF2046FFF75EFA204610BD48
:104FB00010B50446FFF794FF2046FFF755FA204648
:104FC00010BD10B50446FFF795FF2046FFF74CFAD9
:104FD000204610BD10B50446FFF796FF2046FFF7A8
:104FE00043FA204610BD10B50446FFF797FF204650
:104FF000FFF73AFA204610BD10B50446FFF798FFB8
:105000002046FFF731FA204610BD000010B5054BD1
:10501000044640F8083B0DF087FD204605F01EFAD7
:10502000204610BD9011020010B50446FFF7EEFFB8
:105030002046FFF719FA204610BD000010B5054BB9
:10504000044640F8083B0DF06FFD204605F006FAD7
:10505000204610BD4810020010B50446FFF7EEFFD1
:105060002046FFF701FA204610BD000038B50D4B71
:1050700005690360044605F027FA854203D015B19F
:1050800028460DF051FBA06810B103685B68984793
:1050900004F10C000DF048FD204605F0DFF9204634
:1050A00038BD00BF1011020010B50446FFF7DEFF47
:1050B0002046FFF7D9F9204610BD2DE9FF411C46D7
:1050C000804603AB02A80CF0E2FB214603A80A9A33
:1050D00001AB0CF0DCFB029D039C55F80C7C54F8F2
:1050E0000C6C2F44264440462946224605F0F3FA2C
:1050F00098B9284614F0F6FC0544204614F0F2FC5A
:10510000BD42204404D1841B18BF6FF0000407E0A7
:10511000B04204D00135441CE5E7044600E0012418
:1051200003A80CF0F9F802A80CF0F6F8204604B039
:10513000BDE8F0812DE9F7431E46254B1446036078
:1051400007466B46884601A8114632460CF09FFB85
:10515000019D361B55F80C3C7600304605EB0309E3
:105160000DF014F804462A4640462146334605F021
:10517000BEFAB04202460FD3461C14B120460DF0D1
:10518000D3FA30460DF002F804462A46404621463E
:10519000334605F0ACFA0246214638460CF060FA78
:1051A000284614F09FFC2844484505D0451C0021A2
:1051B00038460CF0E2FAD6E714B120460DF0B4FA06
:1051C00001A80CF0A9F8384603B0BDE8F08300BF91
:1051D000103800200A2808D82F291BD93030C0B237
:1051E000814217D2A1F130007047A1F13003DBB248
:1051F000092BF7D9A1F16103DBB2052B02D8A1F18C
:1052000057007047A1F14103DBB2052B02D8A1F191
:10521000370070474FF0FF307047000008B4F3B517
:105220000F460420002112F06BFF1649054613F0CB
:10523000A1FF80B1284614F055FC461C30460CF006
:10524000A5FF29463246044613F029F80D490420EB
:1052500012F056FF00E0044608AA3846079901926A
:1052600016F0E6FB054634B10420214612F048FF53
:1052700020460DF059FA284602B0BDE8F04001B0D2
:10528000704700BF3F24020038B5037F04460D4637
:1052900013B10C44607F38BD0DF0F8FA2368204646
:1052A0009B692946984738BDF8B51F46037F0546D8
:1052B000012B0E46144605D13846521A12F0EFFF64
:1052C0002046F8BD0BB90DF0E1FA2B682846D3F85B
:1052D0001CC0314622463B46E047F8BD70B5441835
:1052E00094F81D3116463BB903681B6A9847B042D3
:1052F00018BF84F81D010346184670BD10B5003272
:10530000064B18BF01228160002104464260036001
:105310000A4605F0ADFA204610BD00BF5811020044
:1053200008B503689B68984708BD08B50368DB6843
:10533000984708BD10B50B6804461B69984720467E
:1053400010BD10B50B6804465B699847204610BD38
:1053500010B50B6804469B699847204610BD10B5F0
:105360000B680446DB699847204610BD08B5036802
:105370001B6A984708BD036807B55B6A9847002316
:10538000C2B262F30703C0F3072262F30F23C0F334
:10539000074262F31743000E60F31F63184603B021
:1053A0005DF804FB036807B59B6A98470023C2B207
:1053B00062F30703C0F3072262F30F23C0F307422F
:1053C00062F31743000E60F31F63184603B05DF8E5
:1053D00004FB000010B50032064B18BF01228160AB
:1053E00000210446426003600A4605F0FBF92046AE
:1053F00010BD00BF2011020008B503689B689847E4
:1054000008BD08B50368DB68984708BD10B50B6890
:1054100004461B699847204610BD10B50B6804462A
:105420005B699847204610BD10B50B6804469B6920
:105430009847204610BD10B50B680446DB699847B5
:10544000204610BD08B503681B6A984708BD03686D
:1054500007B55B6A98470023C2B262F30703C0F343
:10546000072262F30F23C0F3074262F31743000ED3
:1054700060F31F63184603B05DF804FB036807B5CB
:105480009B6A98470023C2B262F30703C0F3072266
:1054900062F30F23C0F3074262F31743000E60F379
:1054A0001F63184603B05DF804FB00000B4A00318F
:1054B00018BF01210260002241608260C260027454
:1054C0004274827442618261C2610262426282629B
:1054D000C2620263426380F84320704750120200A8
:1054E0000B4A003118BF0121026000224160826036
:1054F000C26002744274827442618261C26102625B
:1055000042628262C2620263426380F84320704753
:105510006012020010B50032054B18BF012204468C
:10552000426003608160002105F03CFF204610BD11
:105530006810020008B503689B68984708BD08B565
:105540000368DB68984708BD10B50B6804461B6903
:105550009847204610BD10B50B6804465B69984714
:10556000204610BD10B50B6804469B69984720463D
:1055700010BD00000A4A003118BF0121026000225C
:1055800041608260C260027442618261C2610262F3
:1055900080F8242080F8252080F86420704700BF20
:1055A000701202000032084B18BF012210B5426091
:1055B00003608160044604F087FF002120612046DB
:1055C0000DF058FB204610BD1011020083689B6847
:1055D0000B608368DB684B60704783681B690B60F6
:1055E00083685B694B60704783689B690B60836865
:1055F000DB694B6070478368DB6A0B6083681B6BF9
:105600004B6083685B6B8B6083689B6BCB6083684C
:10561000DB6B0B6183681B6C4B6183685B6C8B611C
:10562000704783689B6C0B608368DB6C4B6083689E
:105630001B6D8B6083685B6DCB6083689B6D0B61BA
:105640008368DB6D4B6183681B6E8B617047836879
:105650005B6E0B6083689B6E4B608368DB6E8B6058
:1056600083681B6FCB6083685B6F0B6183689B6F84
:105670004B618368DB6F8B618368D3F88030CB61CB
:105680008368D3F884300B628368D3F888304B6228
:105690008368D3F88C308B628368D3F89030CB6208
:1056A00070478368D3F894300B608368D3F89830E0
:1056B0004B608368D3F89C308B608368D3F8A0304C
:1056C000CB608368D3F8A4300B618368D3F8A8302B
:1056D0004B618368D3F8AC308B618368D3F8B0300A
:1056E000CB618368D3F8B4300B628368D3F8B830E9
:1056F0004B628368D3F8BC308B628368D3F8C030C8
:10570000CB6270470031064B18BF012110B54160D4
:105710000360044604F0CCFEA060204610BD00BF2C
:10572000901102000031064B18BF012110B54160F5
:105730000360044604F0BCFEA060204610BD00BF1C
:105740004810020010B504460A4804F043FF2268DE
:1057500051689268904202D251F8200008B90CF0CA
:10576000A5F80549054A00230CF0A1FC08B90CF086
:10577000F9FC10BD30380020641602004C230200F2
:1057800010B504460A4804F025FF22685168926863
:10579000904202D251F8200008B90CF087F8054970
:1057A000054A00230CF083FC08B90CF0DBFC10BDAB
:1057B0005024002064160200A01402000123F7B553
:1057C000044680F8643008460F46FFF7D9FF0546C7
:1057D000294601A8FFF7B8FE019B01A853F80C3C2D
:1057E000E3600BF099FDE0680CF0D0FC294606461A
:1057F00001A8FFF7A9FE00233146E26801A80BF0DB
:10580000C9FC01A80BF088FDE368A6602BB196F9EE
:105810000030002BD4BF002301232946237401A8A4
:10582000FFF799FE019B01A853F80C3CA3610BF014
:1058300073FDA0690CF0AAFC2946064601A8FFF7F3
:105840008AFEA2693146002301A80BF0A3FC01A83F
:105850000BF062FD2946666101A8FFF783FE019BFC
:1058600001A853F80C3C23620BF056FD206A0CF0A3
:105870008DFC2946064601A8FFF774FE3146226AD0
:10588000002301A80BF086FC01A80BF045FDE661A2
:105890002846FFF74FFE84F824002846FFF74FFE06
:1058A00084F825003846FFF74DFF0A4B0546196876
:1058B00004F1260301F12402FFF7F6FC064B28460B
:1058C000196804F14A0301F11A02FFF7EDFC03B075
:1058D000F0BD00BF80010020780100202DE9F041DB
:1058E00004460F4804F076FE23680546DF6857F843
:1058F0002080B8F1000F0FD16820FEF7BFFD4146B0
:105900000646FFF737FE30462146FFF757FF20686F
:1059100031462A4604F03CFE57F82500BDE8F081E8
:105920005024002010B504460A4804F053FE2268B3
:1059300051689268904202D251F8200008B90BF0E9
:10594000B5FF0549054A00230CF0B1FB08B90CF07E
:1059500009FC10BD4824002064160200F012020069
:1059600010B504460A4804F035FE22685168926872
:10597000904202D251F8200008B90BF097FF054978
:10598000054A00230CF093FB08B90CF0EBFB10BDAB
:105990004C240020641602000014020010B50446D6
:1059A0000A4804F017FE226851689268904202D2B9
:1059B00051F8200008B90BF079FF0549054A00238A
:1059C0000CF075FB08B90CF0CDFB10BD5C24002079
:1059D00064160200741402000123F7B5044680F82F
:1059E000433008460F46FFF7D9FF0546FFF704FD91
:1059F00060742846FFF705FDA0742846FFF722FDD6
:105A00002946E06201A8FFF701FD019B01A853F8B8
:105A10000C3CE3600BF080FCE0680CF0B7FB29461F
:105A2000064601A8FFF7F2FC00233146E26801A810
:105A30000BF0B0FB01A80BF06FFCE368A6602BB184
:105A400096F90030002BD4BF00230123294623748C
:105A500001A8FFF7E2FC019B01A853F80C3CA361ED
:105A60000BF05AFCA0690CF091FB2946064601A8F0
:105A7000FFF7D3FCA2693146002301A80BF08AFB93
:105A800001A80BF049FC2946666101A8FFF7CCFC90
:105A9000019B01A853F80C3C23620BF03DFC206AEB
:105AA0000CF074FB2946064601A8FFF7BDFC226AEC
:105AB0003146002301A80BF06DFB01A80BF02CFC74
:105AC0002946E66101A8FFF7B6FC019B01A853F83F
:105AD0000C3CA3620BF020FCA06A0CF057FB29469B
